{
  "_format": "hh-sol-artifact-1",
  "contractName": "Token",
  "sourceName": "contracts/Token.sol",
  "abi": [
    {
      "inputs": [
        {
          "internalType": "string",
          "name": "tokenName",
          "type": "string"
        },
        {
          "internalType": "string",
          "name": "tokenSymbol",
          "type": "string"
        },
        {
          "internalType": "uint256",
          "name": "initialSupply",
          "type": "uint256"
        }
      ],
      "stateMutability": "nonpayable",
      "type": "constructor"
    },
    {
      "inputs": [
        {
          "internalType": "address",
          "name": "spender",
          "type": "address"
        },
        {
          "internalType": "uint256",
          "name": "allowance",
          "type": "uint256"
        },
        {
          "internalType": "uint256",
          "name": "needed",
          "type": "uint256"
        }
      ],
      "name": "ERC20InsufficientAllowance",
      "type": "error"
    },
    {
      "inputs": [
        {
          "internalType": "address",
          "name": "sender",
          "type": "address"
        },
        {
          "internalType": "uint256",
          "name": "balance",
          "type": "uint256"
        },
        {
          "internalType": "uint256",
          "name": "needed",
          "type": "uint256"
        }
      ],
      "name": "ERC20InsufficientBalance",
      "type": "error"
    },
    {
      "inputs": [
        {
          "internalType": "address",
          "name": "approver",
          "type": "address"
        }
      ],
      "name": "ERC20InvalidApprover",
      "type": "error"
    },
    {
      "inputs": [
        {
          "internalType": "address",
          "name": "receiver",
          "type": "address"
        }
      ],
      "name": "ERC20InvalidReceiver",
      "type": "error"
    },
    {
      "inputs": [
        {
          "internalType": "address",
          "name": "sender",
          "type": "address"
        }
      ],
      "name": "ERC20InvalidSender",
      "type": "error"
    },
    {
      "inputs": [
        {
          "internalType": "address",
          "name": "spender",
          "type": "address"
        }
      ],
      "name": "ERC20InvalidSpender",
      "type": "error"
    },
    {
      "inputs": [
        {
          "internalType": "address",
          "name": "owner",
          "type": "address"
        }
      ],
      "name": "OwnableInvalidOwner",
      "type": "error"
    },
    {
      "inputs": [
        {
          "internalType": "address",
          "name": "account",
          "type": "address"
        }
      ],
      "name": "OwnableUnauthorizedAccount",
      "type": "error"
    },
    {
      "anonymous": false,
      "inputs": [
        {
          "indexed": true,
          "internalType": "address",
          "name": "owner",
          "type": "address"
        },
        {
          "indexed": true,
          "internalType": "address",
          "name": "spender",
          "type": "address"
        },
        {
          "indexed": false,
          "internalType": "uint256",
          "name": "value",
          "type": "uint256"
        }
      ],
      "name": "Approval",
      "type": "event"
    },
    {
      "anonymous": false,
      "inputs": [
        {
          "indexed": true,
          "internalType": "address",
          "name": "previousOwner",
          "type": "address"
        },
        {
          "indexed": true,
          "internalType": "address",
          "name": "newOwner",
          "type": "address"
        }
      ],
      "name": "OwnershipTransferred",
      "type": "event"
    },
    {
      "anonymous": false,
      "inputs": [
        {
          "indexed": true,
          "internalType": "address",
          "name": "from",
          "type": "address"
        },
        {
          "indexed": true,
          "internalType": "address",
          "name": "to",
          "type": "address"
        },
        {
          "indexed": false,
          "internalType": "uint256",
          "name": "value",
          "type": "uint256"
        }
      ],
      "name": "Transfer",
      "type": "event"
    },
    {
      "inputs": [
        {
          "internalType": "address",
          "name": "owner",
          "type": "address"
        },
        {
          "internalType": "address",
          "name": "spender",
          "type": "address"
        }
      ],
      "name": "allowance",
      "outputs": [
        {
          "internalType": "uint256",
          "name": "",
          "type": "uint256"
        }
      ],
      "stateMutability": "view",
      "type": "function"
    },
    {
      "inputs": [
        {
          "internalType": "address",
          "name": "spender",
          "type": "address"
        },
        {
          "internalType": "uint256",
          "name": "value",
          "type": "uint256"
        }
      ],
      "name": "approve",
      "outputs": [
        {
          "internalType": "bool",
          "name": "",
          "type": "bool"
        }
      ],
      "stateMutability": "nonpayable",
      "type": "function"
    },
    {
      "inputs": [
        {
          "internalType": "address",
          "name": "from",
          "type": "address"
        },
        {
          "internalType": "address",
          "name": "to",
          "type": "address"
        },
        {
          "internalType": "uint256",
          "name": "amount",
          "type": "uint256"
        }
      ],
      "name": "approveAndTransferFrom",
      "outputs": [],
      "stateMutability": "nonpayable",
      "type": "function"
    },
    {
      "inputs": [
        {
          "internalType": "address",
          "name": "account",
          "type": "address"
        }
      ],
      "name": "balanceOf",
      "outputs": [
        {
          "internalType": "uint256",
          "name": "",
          "type": "uint256"
        }
      ],
      "stateMutability": "view",
      "type": "function"
    },
    {
      "inputs": [
        {
          "internalType": "address[]",
          "name": "recipients",
          "type": "address[]"
        },
        {
          "internalType": "uint256[]",
          "name": "values",
          "type": "uint256[]"
        }
      ],
      "name": "bulkTransfer",
      "outputs": [],
      "stateMutability": "payable",
      "type": "function"
    },
    {
      "inputs": [
        {
          "internalType": "uint256",
          "name": "amount",
          "type": "uint256"
        }
      ],
      "name": "burn",
      "outputs": [],
      "stateMutability": "nonpayable",
      "type": "function"
    },
    {
      "inputs": [
        {
          "internalType": "address",
          "name": "account",
          "type": "address"
        },
        {
          "internalType": "uint256",
          "name": "amount",
          "type": "uint256"
        }
      ],
      "name": "burnFrom",
      "outputs": [],
      "stateMutability": "nonpayable",
      "type": "function"
    },
    {
      "inputs": [],
      "name": "decimals",
      "outputs": [
        {
          "internalType": "uint8",
          "name": "",
          "type": "uint8"
        }
      ],
      "stateMutability": "view",
      "type": "function"
    },
    {
      "inputs": [
        {
          "internalType": "string",
          "name": "employeeId",
          "type": "string"
        }
      ],
      "name": "getEmployeeSalary",
      "outputs": [
        {
          "internalType": "string",
          "name": "",
          "type": "string"
        }
      ],
      "stateMutability": "view",
      "type": "function"
    },
    {
      "inputs": [],
      "name": "getOwner",
      "outputs": [
        {
          "internalType": "address",
          "name": "",
          "type": "address"
        }
      ],
      "stateMutability": "view",
      "type": "function"
    },
    {
      "inputs": [],
      "name": "isPaused",
      "outputs": [
        {
          "internalType": "bool",
          "name": "",
          "type": "bool"
        }
      ],
      "stateMutability": "view",
      "type": "function"
    },
    {
      "inputs": [
        {
          "internalType": "address",
          "name": "to",
          "type": "address"
        },
        {
          "internalType": "uint256",
          "name": "amount",
          "type": "uint256"
        }
      ],
      "name": "mint",
      "outputs": [],
      "stateMutability": "nonpayable",
      "type": "function"
    },
    {
      "inputs": [],
      "name": "name",
      "outputs": [
        {
          "internalType": "string",
          "name": "",
          "type": "string"
        }
      ],
      "stateMutability": "view",
      "type": "function"
    },
    {
      "inputs": [],
      "name": "owner",
      "outputs": [
        {
          "internalType": "address",
          "name": "",
          "type": "address"
        }
      ],
      "stateMutability": "view",
      "type": "function"
    },
    {
      "inputs": [],
      "name": "pause",
      "outputs": [],
      "stateMutability": "nonpayable",
      "type": "function"
    },
    {
      "inputs": [],
      "name": "renounceOwnership",
      "outputs": [],
      "stateMutability": "nonpayable",
      "type": "function"
    },
    {
      "inputs": [
        {
          "internalType": "string",
          "name": "employeeId",
          "type": "string"
        },
        {
          "internalType": "string",
          "name": "salary",
          "type": "string"
        }
      ],
      "name": "setEmployeeSalary",
      "outputs": [],
      "stateMutability": "nonpayable",
      "type": "function"
    },
    {
      "inputs": [],
      "name": "symbol",
      "outputs": [
        {
          "internalType": "string",
          "name": "",
          "type": "string"
        }
      ],
      "stateMutability": "view",
      "type": "function"
    },
    {
      "inputs": [],
      "name": "totalSupply",
      "outputs": [
        {
          "internalType": "uint256",
          "name": "",
          "type": "uint256"
        }
      ],
      "stateMutability": "view",
      "type": "function"
    },
    {
      "inputs": [
        {
          "internalType": "address",
          "name": "to",
          "type": "address"
        },
        {
          "internalType": "uint256",
          "name": "value",
          "type": "uint256"
        }
      ],
      "name": "transfer",
      "outputs": [
        {
          "internalType": "bool",
          "name": "",
          "type": "bool"
        }
      ],
      "stateMutability": "nonpayable",
      "type": "function"
    },
    {
      "inputs": [
        {
          "internalType": "address",
          "name": "from",
          "type": "address"
        },
        {
          "internalType": "address",
          "name": "to",
          "type": "address"
        },
        {
          "internalType": "uint256",
          "name": "value",
          "type": "uint256"
        }
      ],
      "name": "transferFrom",
      "outputs": [
        {
          "internalType": "bool",
          "name": "",
          "type": "bool"
        }
      ],
      "stateMutability": "nonpayable",
      "type": "function"
    },
    {
      "inputs": [
        {
          "internalType": "address",
          "name": "newOwner",
          "type": "address"
        }
      ],
      "name": "transferOwnership",
      "outputs": [],
      "stateMutability": "nonpayable",
      "type": "function"
    },
    {
      "inputs": [],
      "name": "unpause",
      "outputs": [],
      "stateMutability": "nonpayable",
      "type": "function"
    }
  ],
  "bytecode": "0x608060405234801561001057600080fd5b50604051612aec380380612aec83398181016040528101906100329190610631565b61004061010b60201b60201c565b8383816003908161005191906108d3565b50806004908161006191906108d3565b505050600073ffffffffffffffffffffffffffffffffffffffff168173ffffffffffffffffffffffffffffffffffffffff16036100d65760006040517f1e4fbdf70000000000000000000000000000000000000000000000000000000081526004016100cd91906109e6565b60405180910390fd5b6100e58161011360201b60201c565b506101036100f761010b60201b60201c565b826101d960201b60201c565b505050610ac5565b600033905090565b6000600560009054906101000a900473ffffffffffffffffffffffffffffffffffffffff16905081600560006101000a81548173ffffffffffffffffffffffffffffffffffffffff021916908373ffffffffffffffffffffffffffffffffffffffff1602179055508173ffffffffffffffffffffffffffffffffffffffff168173ffffffffffffffffffffffffffffffffffffffff167f8be0079c531659141344cd1fd0a4f28419497f9722a3daafe3b4186f6b6457e060405160405180910390a35050565b600073ffffffffffffffffffffffffffffffffffffffff168273ffffffffffffffffffffffffffffffffffffffff160361024b5760006040517fec442f0500000000000000000000000000000000000000000000000000000000815260040161024291906109e6565b60405180910390fd5b61025d6000838361026160201b60201c565b5050565b600073ffffffffffffffffffffffffffffffffffffffff168373ffffffffffffffffffffffffffffffffffffffff16036102b35780600260008282546102a79190610a30565b92505081905550610386565b60008060008573ffffffffffffffffffffffffffffffffffffffff1673ffffffffffffffffffffffffffffffffffffffff1681526020019081526020016000205490508181101561033f578381836040517fe450d38c00000000000000000000000000000000000000000000000000000000815260040161033693929190610a73565b60405180910390fd5b8181036000808673ffffffffffffffffffffffffffffffffffffffff1673ffffffffffffffffffffffffffffffffffffffff16815260200190815260200160002081905550505b600073ffffffffffffffffffffffffffffffffffffffff168273ffffffffffffffffffffffffffffffffffffffff16036103cf578060026000828254039250508190555061041c565b806000808473ffffffffffffffffffffffffffffffffffffffff1673ffffffffffffffffffffffffffffffffffffffff168152602001908152602001600020600082825401925050819055505b8173ffffffffffffffffffffffffffffffffffffffff168373ffffffffffffffffffffffffffffffffffffffff167fddf252ad1be2c89b69c2b068fc378daa952ba7f163c4a11628f55a4df523b3ef836040516104799190610aaa565b60405180910390a3505050565b6000604051905090565b600080fd5b600080fd5b600080fd5b600080fd5b6000601f19601f8301169050919050565b7f4e487b7100000000000000000000000000000000000000000000000000000000600052604160045260246000fd5b6104ed826104a4565b810181811067ffffffffffffffff8211171561050c5761050b6104b5565b5b80604052505050565b600061051f610486565b905061052b82826104e4565b919050565b600067ffffffffffffffff82111561054b5761054a6104b5565b5b610554826104a4565b9050602081019050919050565b60005b8381101561057f578082015181840152602081019050610564565b60008484015250505050565b600061059e61059984610530565b610515565b9050828152602081018484840111156105ba576105b961049f565b5b6105c5848285610561565b509392505050565b600082601f8301126105e2576105e161049a565b5b81516105f284826020860161058b565b91505092915050565b6000819050919050565b61060e816105fb565b811461061957600080fd5b50565b60008151905061062b81610605565b92915050565b60008060006060848603121561064a57610649610490565b5b600084015167ffffffffffffffff81111561066857610667610495565b5b610674868287016105cd565b935050602084015167ffffffffffffffff81111561069557610694610495565b5b6106a1868287016105cd565b92505060406106b28682870161061c565b9150509250925092565b600081519050919050565b7f4e487b7100000000000000000000000000000000000000000000000000000000600052602260045260246000fd5b6000600282049050600182168061070e57607f821691505b602082108103610721576107206106c7565b5b50919050565b60008190508160005260206000209050919050565b60006020601f8301049050919050565b600082821b905092915050565b6000600883026107897fffffffffffffffffffffffffffffffffffffffffffffffffffffffffffffffff8261074c565b610793868361074c565b95508019841693508086168417925050509392505050565b6000819050919050565b60006107d06107cb6107c6846105fb565b6107ab565b6105fb565b9050919050565b6000819050919050565b6107ea836107b5565b6107fe6107f6826107d7565b848454610759565b825550505050565b600090565b610813610806565b61081e8184846107e1565b505050565b5b818110156108425761083760008261080b565b600181019050610824565b5050565b601f8211156108875761085881610727565b6108618461073c565b81016020851015610870578190505b61088461087c8561073c565b830182610823565b50505b505050565b600082821c905092915050565b60006108aa6000198460080261088c565b1980831691505092915050565b60006108c38383610899565b9150826002028217905092915050565b6108dc826106bc565b67ffffffffffffffff8111156108f5576108f46104b5565b5b6108ff82546106f6565b61090a828285610846565b600060209050601f83116001811461093d576000841561092b578287015190505b61093585826108b7565b86555061099d565b601f19841661094b86610727565b60005b828110156109735784890151825560018201915060208501945060208101905061094e565b86831015610990578489015161098c601f891682610899565b8355505b6001600288020188555050505b505050505050565b600073ffffffffffffffffffffffffffffffffffffffff82169050919050565b60006109d0826109a5565b9050919050565b6109e0816109c5565b82525050565b60006020820190506109fb60008301846109d7565b92915050565b7f4e487b7100000000000000000000000000000000000000000000000000000000600052601160045260246000fd5b6000610a3b826105fb565b9150610a46836105fb565b9250828201905080821115610a5e57610a5d610a01565b5b92915050565b610a6d816105fb565b82525050565b6000606082019050610a8860008301866109d7565b610a956020830185610a64565b610aa26040830184610a64565b949350505050565b6000602082019050610abf6000830184610a64565b92915050565b61201880610ad46000396000f3fe6080604052600436106101405760003560e01c806370a08231116100b657806395d89b411161006f57806395d89b4114610401578063a13e7ea71461042c578063a9059cbb14610469578063b187bd26146104a6578063dd62ed3e146104d1578063f2fde38b1461050e57610140565b806370a0823114610317578063715018a61461035457806379cc67901461036b5780638456cb5914610394578063893d20e8146103ab5780638da5cb5b146103d657610140565b8063288c9c9d11610108578063288c9c9d146102315780632b77a9991461025a578063313ce567146102835780633f4ba83a146102ae57806340c10f19146102c557806342966c68146102ee57610140565b806306fdde0314610145578063095ea7b314610170578063153a1f3e146101ad57806318160ddd146101c957806323b872dd146101f4575b600080fd5b34801561015157600080fd5b5061015a610537565b60405161016791906114a1565b60405180910390f35b34801561017c57600080fd5b5061019760048036038101906101929190611561565b6105c9565b6040516101a491906115bc565b60405180910390f35b6101c760048036038101906101c29190611692565b6105ec565b005b3480156101d557600080fd5b506101de6107d3565b6040516101eb9190611722565b60405180910390f35b34801561020057600080fd5b5061021b6004803603810190610216919061173d565b6107dd565b60405161022891906115bc565b60405180910390f35b34801561023d57600080fd5b506102586004803603810190610253919061173d565b61080c565b005b34801561026657600080fd5b50610281600480360381019061027c91906117e6565b61082f565b005b34801561028f57600080fd5b5061029861086d565b6040516102a59190611883565b60405180910390f35b3480156102ba57600080fd5b506102c3610876565b005b3480156102d157600080fd5b506102ec60048036038101906102e79190611561565b61089b565b005b3480156102fa57600080fd5b506103156004803603810190610310919061189e565b6108b1565b005b34801561032357600080fd5b5061033e600480360381019061033991906118cb565b6108c5565b60405161034b9190611722565b60405180910390f35b34801561036057600080fd5b5061036961090d565b005b34801561037757600080fd5b50610392600480360381019061038d9190611561565b610921565b005b3480156103a057600080fd5b506103a9610937565b005b3480156103b757600080fd5b506103c061095c565b6040516103cd9190611907565b60405180910390f35b3480156103e257600080fd5b506103eb61096b565b6040516103f89190611907565b60405180910390f35b34801561040d57600080fd5b50610416610995565b60405161042391906114a1565b60405180910390f35b34801561043857600080fd5b50610453600480360381019061044e9190611922565b610a27565b60405161046091906114a1565b60405180910390f35b34801561047557600080fd5b50610490600480360381019061048b9190611561565b610ada565b60405161049d91906115bc565b60405180910390f35b3480156104b257600080fd5b506104bb610afd565b6040516104c891906115bc565b60405180910390f35b3480156104dd57600080fd5b506104f860048036038101906104f3919061196f565b610b14565b6040516105059190611722565b60405180910390f35b34801561051a57600080fd5b50610535600480360381019061053091906118cb565b610b9b565b005b606060038054610546906119de565b80601f0160208091040260200160405190810160405280929190818152602001828054610572906119de565b80156105bf5780601f10610594576101008083540402835291602001916105bf565b820191906000526020600020905b8154815290600101906020018083116105a257829003601f168201915b5050505050905090565b6000806105d4610c21565b90506105e1818585610c29565b600191505092915050565b6105f4610c3b565b81819050848490501461063c576040517f08c379a000000000000000000000000000000000000000000000000000000000815260040161063390611a81565b60405180910390fd5b6000805b8383905081101561067f5783838281811061065e5761065d611aa1565b5b90506020020135826106709190611aff565b91508080600101915050610640565b50348111156106c3576040517f08c379a00000000000000000000000000000000000000000000000000000000081526004016106ba90611ba5565b60405180910390fd5b60005b858590508110156107cb5760008686838181106106e6576106e5611aa1565b5b90506020020160208101906106fb91906118cb565b73ffffffffffffffffffffffffffffffffffffffff1685858481811061072457610723611aa1565b5b9050602002013560405161073790611bf6565b60006040518083038185875af1925050503d8060008114610774576040519150601f19603f3d011682016040523d82523d6000602084013e610779565b606091505b50509050806107bd576040517f08c379a00000000000000000000000000000000000000000000000000000000081526004016107b490611c7d565b60405180910390fd5b5080806001019150506106c6565b505050505050565b6000600254905090565b6000806107e8610c21565b90506107f5858285610cc2565b610800858585610d57565b60019150509392505050565b61081e83610818610c21565b83610c29565b6108298383836107dd565b50505050565b610837610c3b565b81816006868660405161084b929190611cdc565b90815260200160405180910390209182610866929190611edb565b5050505050565b60006012905090565b61087e610c3b565b6000600760006101000a81548160ff021916908315150217905550565b6108a3610c3b565b6108ad8282610e4b565b5050565b6108c26108bc610c21565b82610ecd565b50565b60008060008373ffffffffffffffffffffffffffffffffffffffff1673ffffffffffffffffffffffffffffffffffffffff168152602001908152602001600020549050919050565b610915610c3b565b61091f6000610f4f565b565b610929610c3b565b6109338282610ecd565b5050565b61093f610c3b565b6001600760006101000a81548160ff021916908315150217905550565b600061096661096b565b905090565b6000600560009054906101000a900473ffffffffffffffffffffffffffffffffffffffff16905090565b6060600480546109a4906119de565b80601f01602080910402602001604051908101604052809291908181526020018280546109d0906119de565b8015610a1d5780601f106109f257610100808354040283529160200191610a1d565b820191906000526020600020905b815481529060010190602001808311610a0057829003601f168201915b5050505050905090565b606060068383604051610a3b929190611cdc565b90815260200160405180910390208054610a54906119de565b80601f0160208091040260200160405190810160405280929190818152602001828054610a80906119de565b8015610acd5780601f10610aa257610100808354040283529160200191610acd565b820191906000526020600020905b815481529060010190602001808311610ab057829003601f168201915b5050505050905092915050565b600080610ae5610c21565b9050610af2818585610d57565b600191505092915050565b6000600760009054906101000a900460ff16905090565b6000600160008473ffffffffffffffffffffffffffffffffffffffff1673ffffffffffffffffffffffffffffffffffffffff16815260200190815260200160002060008373ffffffffffffffffffffffffffffffffffffffff1673ffffffffffffffffffffffffffffffffffffffff16815260200190815260200160002054905092915050565b610ba3610c3b565b600073ffffffffffffffffffffffffffffffffffffffff168173ffffffffffffffffffffffffffffffffffffffff1603610c155760006040517f1e4fbdf7000000000000000000000000000000000000000000000000000000008152600401610c0c9190611907565b60405180910390fd5b610c1e81610f4f565b50565b600033905090565b610c368383836001611015565b505050565b610c43610c21565b73ffffffffffffffffffffffffffffffffffffffff16610c6161096b565b73ffffffffffffffffffffffffffffffffffffffff1614610cc057610c84610c21565b6040517f118cdaa7000000000000000000000000000000000000000000000000000000008152600401610cb79190611907565b60405180910390fd5b565b6000610cce8484610b14565b90507fffffffffffffffffffffffffffffffffffffffffffffffffffffffffffffffff811015610d515781811015610d41578281836040517ffb8f41b2000000000000000000000000000000000000000000000000000000008152600401610d3893929190611fab565b60405180910390fd5b610d5084848484036000611015565b5b50505050565b600073ffffffffffffffffffffffffffffffffffffffff168373ffffffffffffffffffffffffffffffffffffffff1603610dc95760006040517f96c6fd1e000000000000000000000000000000000000000000000000000000008152600401610dc09190611907565b60405180910390fd5b600073ffffffffffffffffffffffffffffffffffffffff168273ffffffffffffffffffffffffffffffffffffffff1603610e3b5760006040517fec442f05000000000000000000000000000000000000000000000000000000008152600401610e329190611907565b60405180910390fd5b610e468383836111ec565b505050565b600073ffffffffffffffffffffffffffffffffffffffff168273ffffffffffffffffffffffffffffffffffffffff1603610ebd5760006040517fec442f05000000000000000000000000000000000000000000000000000000008152600401610eb49190611907565b60405180910390fd5b610ec9600083836111ec565b5050565b600073ffffffffffffffffffffffffffffffffffffffff168273ffffffffffffffffffffffffffffffffffffffff1603610f3f5760006040517f96c6fd1e000000000000000000000000000000000000000000000000000000008152600401610f369190611907565b60405180910390fd5b610f4b826000836111ec565b5050565b6000600560009054906101000a900473ffffffffffffffffffffffffffffffffffffffff16905081600560006101000a81548173ffffffffffffffffffffffffffffffffffffffff021916908373ffffffffffffffffffffffffffffffffffffffff1602179055508173ffffffffffffffffffffffffffffffffffffffff168173ffffffffffffffffffffffffffffffffffffffff167f8be0079c531659141344cd1fd0a4f28419497f9722a3daafe3b4186f6b6457e060405160405180910390a35050565b600073ffffffffffffffffffffffffffffffffffffffff168473ffffffffffffffffffffffffffffffffffffffff16036110875760006040517fe602df0500000000000000000000000000000000000000000000000000000000815260040161107e9190611907565b60405180910390fd5b600073ffffffffffffffffffffffffffffffffffffffff168373ffffffffffffffffffffffffffffffffffffffff16036110f95760006040517f94280d620000000000000000000000000000000000000000000000000000000081526004016110f09190611907565b60405180910390fd5b81600160008673ffffffffffffffffffffffffffffffffffffffff1673ffffffffffffffffffffffffffffffffffffffff16815260200190815260200160002060008573ffffffffffffffffffffffffffffffffffffffff1673ffffffffffffffffffffffffffffffffffffffff1681526020019081526020016000208190555080156111e6578273ffffffffffffffffffffffffffffffffffffffff168473ffffffffffffffffffffffffffffffffffffffff167f8c5be1e5ebec7d5bd14f71427d1e84f3dd0314c0f7b2291e5b200ac8c7c3b925846040516111dd9190611722565b60405180910390a35b50505050565b600073ffffffffffffffffffffffffffffffffffffffff168373ffffffffffffffffffffffffffffffffffffffff160361123e5780600260008282546112329190611aff565b92505081905550611311565b60008060008573ffffffffffffffffffffffffffffffffffffffff1673ffffffffffffffffffffffffffffffffffffffff168152602001908152602001600020549050818110156112ca578381836040517fe450d38c0000000000000000000000000000000000000000000000000000000081526004016112c193929190611fab565b60405180910390fd5b8181036000808673ffffffffffffffffffffffffffffffffffffffff1673ffffffffffffffffffffffffffffffffffffffff16815260200190815260200160002081905550505b600073ffffffffffffffffffffffffffffffffffffffff168273ffffffffffffffffffffffffffffffffffffffff160361135a57806002600082825403925050819055506113a7565b806000808473ffffffffffffffffffffffffffffffffffffffff1673ffffffffffffffffffffffffffffffffffffffff168152602001908152602001600020600082825401925050819055505b8173ffffffffffffffffffffffffffffffffffffffff168373ffffffffffffffffffffffffffffffffffffffff167fddf252ad1be2c89b69c2b068fc378daa952ba7f163c4a11628f55a4df523b3ef836040516114049190611722565b60405180910390a3505050565b600081519050919050565b600082825260208201905092915050565b60005b8381101561144b578082015181840152602081019050611430565b60008484015250505050565b6000601f19601f8301169050919050565b600061147382611411565b61147d818561141c565b935061148d81856020860161142d565b61149681611457565b840191505092915050565b600060208201905081810360008301526114bb8184611468565b905092915050565b600080fd5b600080fd5b600073ffffffffffffffffffffffffffffffffffffffff82169050919050565b60006114f8826114cd565b9050919050565b611508816114ed565b811461151357600080fd5b50565b600081359050611525816114ff565b92915050565b6000819050919050565b61153e8161152b565b811461154957600080fd5b50565b60008135905061155b81611535565b92915050565b60008060408385031215611578576115776114c3565b5b600061158685828601611516565b92505060206115978582860161154c565b9150509250929050565b60008115159050919050565b6115b6816115a1565b82525050565b60006020820190506115d160008301846115ad565b92915050565b600080fd5b600080fd5b600080fd5b60008083601f8401126115fc576115fb6115d7565b5b8235905067ffffffffffffffff811115611619576116186115dc565b5b602083019150836020820283011115611635576116346115e1565b5b9250929050565b60008083601f840112611652576116516115d7565b5b8235905067ffffffffffffffff81111561166f5761166e6115dc565b5b60208301915083602082028301111561168b5761168a6115e1565b5b9250929050565b600080600080604085870312156116ac576116ab6114c3565b5b600085013567ffffffffffffffff8111156116ca576116c96114c8565b5b6116d6878288016115e6565b9450945050602085013567ffffffffffffffff8111156116f9576116f86114c8565b5b6117058782880161163c565b925092505092959194509250565b61171c8161152b565b82525050565b60006020820190506117376000830184611713565b92915050565b600080600060608486031215611756576117556114c3565b5b600061176486828701611516565b935050602061177586828701611516565b92505060406117868682870161154c565b9150509250925092565b60008083601f8401126117a6576117a56115d7565b5b8235905067ffffffffffffffff8111156117c3576117c26115dc565b5b6020830191508360018202830111156117df576117de6115e1565b5b9250929050565b60008060008060408587031215611800576117ff6114c3565b5b600085013567ffffffffffffffff81111561181e5761181d6114c8565b5b61182a87828801611790565b9450945050602085013567ffffffffffffffff81111561184d5761184c6114c8565b5b61185987828801611790565b925092505092959194509250565b600060ff82169050919050565b61187d81611867565b82525050565b60006020820190506118986000830184611874565b92915050565b6000602082840312156118b4576118b36114c3565b5b60006118c28482850161154c565b91505092915050565b6000602082840312156118e1576118e06114c3565b5b60006118ef84828501611516565b91505092915050565b611901816114ed565b82525050565b600060208201905061191c60008301846118f8565b92915050565b60008060208385031215611939576119386114c3565b5b600083013567ffffffffffffffff811115611957576119566114c8565b5b61196385828601611790565b92509250509250929050565b60008060408385031215611986576119856114c3565b5b600061199485828601611516565b92505060206119a585828601611516565b9150509250929050565b7f4e487b7100000000000000000000000000000000000000000000000000000000600052602260045260246000fd5b600060028204905060018216806119f657607f821691505b602082108103611a0957611a086119af565b5b50919050565b7f526563697069656e747320616e642076616c75657320617272617973206d757360008201527f742068617665207468652073616d65206c656e6774682e000000000000000000602082015250565b6000611a6b60378361141c565b9150611a7682611a0f565b604082019050919050565b60006020820190508181036000830152611a9a81611a5e565b9050919050565b7f4e487b7100000000000000000000000000000000000000000000000000000000600052603260045260246000fd5b7f4e487b7100000000000000000000000000000000000000000000000000000000600052601160045260246000fd5b6000611b0a8261152b565b9150611b158361152b565b9250828201905080821115611b2d57611b2c611ad0565b5b92915050565b7f496e73756666696369656e742045746865722070726f766964656420666f722060008201527f746865207472616e736665722e00000000000000000000000000000000000000602082015250565b6000611b8f602d8361141c565b9150611b9a82611b33565b604082019050919050565b60006020820190508181036000830152611bbe81611b82565b9050919050565b600081905092915050565b50565b6000611be0600083611bc5565b9150611beb82611bd0565b600082019050919050565b6000611c0182611bd3565b9150819050919050565b7f5472616e73666572206661696c656420666f72206f6e65206f72206d6f72652060008201527f726563697069656e74732e000000000000000000000000000000000000000000602082015250565b6000611c67602b8361141c565b9150611c7282611c0b565b604082019050919050565b60006020820190508181036000830152611c9681611c5a565b9050919050565b600081905092915050565b82818337600083830152505050565b6000611cc38385611c9d565b9350611cd0838584611ca8565b82840190509392505050565b6000611ce9828486611cb7565b91508190509392505050565b600082905092915050565b7f4e487b7100000000000000000000000000000000000000000000000000000000600052604160045260246000fd5b60008190508160005260206000209050919050565b60006020601f8301049050919050565b600082821b905092915050565b600060088302611d917fffffffffffffffffffffffffffffffffffffffffffffffffffffffffffffffff82611d54565b611d9b8683611d54565b95508019841693508086168417925050509392505050565b6000819050919050565b6000611dd8611dd3611dce8461152b565b611db3565b61152b565b9050919050565b6000819050919050565b611df283611dbd565b611e06611dfe82611ddf565b848454611d61565b825550505050565b600090565b611e1b611e0e565b611e26818484611de9565b505050565b5b81811015611e4a57611e3f600082611e13565b600181019050611e2c565b5050565b601f821115611e8f57611e6081611d2f565b611e6984611d44565b81016020851015611e78578190505b611e8c611e8485611d44565b830182611e2b565b50505b505050565b600082821c905092915050565b6000611eb260001984600802611e94565b1980831691505092915050565b6000611ecb8383611ea1565b9150826002028217905092915050565b611ee58383611cf5565b67ffffffffffffffff811115611efe57611efd611d00565b5b611f0882546119de565b611f13828285611e4e565b6000601f831160018114611f425760008415611f30578287013590505b611f3a8582611ebf565b865550611fa2565b601f198416611f5086611d2f565b60005b82811015611f7857848901358255600182019150602085019450602081019050611f53565b86831015611f955784890135611f91601f891682611ea1565b8355505b6001600288020188555050505b50505050505050565b6000606082019050611fc060008301866118f8565b611fcd6020830185611713565b611fda6040830184611713565b94935050505056fea2646970667358221220f9defc08d3cb7625977c51ff70d17f2723da090752d52a2b9b6ab9a1b717fa5a64736f6c634300081b0033",
  "linkReferences": {},
  "deployedLinkReferences": {}
}